:020000040800F2
:10000000080E00200101000893220008051A0008CC
:1000100091220008E7010008973A0008000000005C
:10002000000000000000000000000000592500084A
:100030002B02000800000000572500085B2500087F
:100040001B0100081B0100081B0100081B01000820
:100050001B0100081B0100081B0100081B01000810
:100060001B0100081B0100081B0100081B01000800
:100070001B0100081B0100081B0100081B010008F0
:10008000F50100081B0100081B0100081B01000806
:10009000213A00081B0100081B0100081B01000891
:1000A0001B0100081B0100081B0100081B010008C0
:1000B0001B0100081B0100081B010008091A0008A9
:1000C0001B0100081B0100081B0100081B010008A0
:1000D0001B0100081B0100081B0100081B01000890
:1000E0001B0100081B0100081B010008DFF80CD0F1
:1000F00000F03CF800480047D93A0008080E0020FC
:100100000648804706480047FEE7FEE7FEE7FEE7B1
:10011000FEE7FEE7FEE7FEE7FEE7FEE7C125000893
:10012000ED00000840EA01039B0703D009E008C97D
:10013000121F08C0042AFAD203E011F8013B00F8AC
:10014000013B521EF9D27047D2B201E000F8012BF8
:10015000491EFBD270470022F6E710B513460A4647
:1001600004461946FFF7F0FF204610BD064C074D28
:1001700006E0E06840F0010394E807009847103477
:10018000AC42F6D3FFF7B6FF183C0008383C000835
:1001900070B58C1810F8015B15F0070301D110F849
:1001A000013B2A1106D110F8012B03E010F8016B76
:1001B00001F8016B5B1EF9D12B0705D40023521EF9
:1001C0000DD401F8013BFAE710F8013BCB1A921C61
:1001D00003E013F8015B01F8015B521EF9D5A1425F
:1001E000D8D3002070BDFEE7002070470020704784
:1001F00000207047014800F06BB800005C0200204E
:1002000030B590F840500124AC40C56B6C60046878
:1002100063604368102B036803D099600068C26074
:1002200030BD9A600068C16030BD70477047000003
:1002300010B590F821100024022903D00421816315
:1002400001243DE001680A6822F00E020A6001689C
:100250000A6822F001020A601A4A0168914201D13B
:10026000012121E0174A1432914201D110211BE0F3
:10027000144A2832914201D1891515E0114A3C32C5
:10028000914201D189140FE00E4A5032914202D1BD
:100290004FF4803108E00B4A6432914202D14FF4AE
:1002A000801101E04FF08071064A083A5160012147
:1002B00080F82110002180F82010416B01B188479F
:1002C000204610BD0800024090F821007047000051
:1002D0002DE9F05FC16B0C6801680B68D0F840C075
:1002E000042202FA0CF2494DDFF824A1494E4A4F8C
:1002F000DFF828B1DFF828E122422CD05A072AD5AE
:100300000A68920603D40A6822F004020A600168AF
:10031000A94201D1042219E0514501D1402215E042
:10032000B14202D14FF4806210E0B94202D14FF4E1
:1003300080420BE0594502D14FF4802206E071451E
:1003400002D14FF4800201E04FF080622F4908395A
:100350004A60C16A3BE04FF0020808FA0CF818EA5C
:10036000040F4FF000094FF0010235D05FEA8378A7
:1003700032D50B689B0605D40B6823F00A030B608B
:1003800080F821200168A94201D1022219E05145DB
:1003900001D1202215E0B14202D14FF4007210E0E9
:1003A000B94202D14FF400520BE0594502D14FF44B
:1003B000003206E0714502D14FF4001201E04FF027
:1003C0000072124908394A6080F82090816A002939
:1003D0001AD0BDE8F05F0847082505FA0CF525425C
:1003E00012D01B0710D50B6823F00E030B6090F89A
:1003F0004010C36B02FA01F15960826380F821203A
:1004000080F82090016BE2E7BDE8F09F0800024011
:100410001C000240300002404400024058000240EC
:100420006C00024030B528B308C81349142219449F
:10043000B1FBF2F18900C163104981630221417768
:100440001A6843F6F0718A43D0E900142143D0E9D9
:1004500002452C43214304692143446921438469B3
:100460002143114319600021416301224277017742
:10047000084630BD012030BDF8FFFDBF000002403E
:1004800070B5044690F82000002501280CD001200A
:1004900084F8200094F821600020012E06D084F812
:1004A00020000225284670BD022070BD022684F877
:1004B0002160A0632068066826F0010606602046D9
:1004C000FFF79EFEE06A00282068016802D041F034
:1004D0000E0106E021F0040101602068016841F08E
:1004E0000A0101602068016841F001010160D9E75B
:1004F00070B5044600F0FEF80546601C02D00448C2
:100500000078044400F0F6F8401BA042FAD370BD16
:10051000D40000202DE9F84FDFF8B891002409F14C
:10052000040A0AF1040B23460F270BF1040EC9E05D
:100530000125A5402A40AA427DD1674ED1F804C0CA
:10054000ACEB0608B44532D014DCBCF1030F3AD052
:1005500009DCBCF1000F2AD0BCF1010F1CD0BCF1AA
:10056000020F31D11DE0BCF1110F17D0BCF1120FF9
:100570002AD119E0B8F5881F19D006DCB8F5803FFC
:1005800015D0B8F5801F1FD111E0B8F5001F0ED0AF
:10059000B8F5041F18D10AE0CB6815E0CB681B1D25
:1005A00012E0CB6808330FE0CB680C330CE08B68AB
:1005B0002BB1012B4FF0080303D0456104E0042365
:1005C00002E0056100E00023FF2A01D8064601E0B1
:1005D00000F104064FEA840501D9A5F12005D6F8FB
:1005E000008007FA05FC28EA0C0803FA05F548EA3A
:1005F0000508C6F800804D68ED0062D5374DAE693C
:1006000046F00106AE61AD6924F0030605F0010570
:100610000095334D06EB050CDCF80850A607360FA5
:1006200007FA06F825EA0805DFF8B880404503D147
:100630004FF0000817E044E0DFF8AC80404502D1FD
:100640004FF001080FE0DFF8A480404502D14FF0E1
:10065000020808E0DFF89880404502D14FF0030817
:1006600001E04FF0040808FA06F848EA0508CCF85B
:1006700008804D68D9F80060ED034D4601D516435A
:1006800000E096432E604D68DAF80060AD035546F1
:1006900001D5164300E096432E604D68DBF80060FC
:1006A000ED025D4601D5164300E096432E604D688D
:1006B000DEF80060AD02754601D5164300E09643B2
:1006C0002E60641C0D682A46E5407FF431AFBDE81A
:1006D000F88F0000000401400000111000100240DB
:1006E0000000014000080140000C014000100140E2
:1006F000001401400148806870470000D4000020C9
:10070000704770472DE9F041026800245168C56ABE
:1007100090F83E3090F83D60102B1CD0402B1AD042
:10072000036C002B7ED053694FF02805DB439F07F5
:1007300079D4CF43BF0576D4016C01B1946990F8A8
:100740003D3000219D430B467FD0C91E516180F88A
:100750003C30BDE8F081946953694FF42A07DB43CC
:100760005FEAC37C4FF02A4604D0BD42F1D0B542C7
:10077000EFD010E0CD43AD050DD4C16AB94201D12F
:10078000012103E0C16AB14201D10821C162BDE883
:10079000F04101F041BC1D0716D4CD43AD0513D483
:1007A000416CC9B21161416B11B9826B002AD0D082
:1007B000896A19B9816B896A0029CAD000684168C1
:1007C00041F400614160C4E79D0706D4CD43AD0507
:1007D00003D4BDE8F04101F073BBE4435268640701
:1007E0004FEA025215D4002AB3DB1A0608D4CA43D2
:1007F000520505D45A0705D5BDE8F04101F0DEBA2F
:100800005A07A6D4C9438905A3D4BDE8F04101F035
:1008100093BA002A9DDB5A060CD4CA43520509D468
:100820005A0702E00FE023E00FE005D5BDE8F041F4
:1008300001F039BA5A078CD4C943890589D4BDE877
:10084000F04101F0C7B994696DE7556825F48065FA
:100850005560E243540700D50121120601D5828973
:1008600000E0028B80F83C3092B2FFF74AFF70E75D
:10087000DC0606D4CC43A40503D4BDE8F04101F066
:1008800013BC212E27D0292E25D05C0655D4CC436D
:10089000640552D45B0752D590F83D10438D002B70
:1008A00091D01269436A1A70426A521C4262428DA8
:1008B000521E4285428D002A85D12A29D7D101684E
:1008C0004A6822F480624A602221016380F83D5028
:1008D00000F03CF93DE71C0623D4CC43640520D44A
:1008E0005B0720D590F83D10438D002BBFD0436AA5
:1008F0001B781361426A521C4262428D521E42852D
:10090000428D002AB3D12929B1D101684A6822F465
:1009100080624A602121016380F83D5000F017F9A0
:1009200017E75B07A3D4C9438905A0D4418D0029EB
:100930009DD0416A097811610AE05B0797D4C943E9
:10094000890594D4418D002991D01169426A1170B2
:10095000416A491C4162418D491E4185F9E6704753
:1009600070B504001BD094F83D00002520B984F830
:100970003C50204600F0B4F8242084F83D00206864
:10098000016821F00101016000F004FD4D4A616839
:10099000914201D84C4900E04C49884201D20120E3
:1009A00070BD4B492368B0FBF1F15E6826F03F064D
:1009B0000E435E606368934206D94FF496735943C1
:1009C0004FF47A73B1FBF3F12368491C1E6A26F0D9
:1009D0003F06314319626168914210D84900401EB8
:1009E000B0FBF1F2521CC2F30B02042A01D2042024
:1009F00022E0B0FBF1F0401CC0F30B001CE0A36848
:100A0000F3B301EBC10202EB0116421EB2FBF6F298
:100A1000521C42F48042120549D093B301EBC1024B
:100A200002EB0111401EB0FBF1F0401CC0F30B00C3
:100A300040F4804040F400402168CA694CF6FF73DE
:100A40009A431043C861D4E90701084321680A6842
:100A500022F0C00210430860D4E90301014320687A
:100A6000826848F2FF339A4311438160D4E905015B
:100A700008432168CA6822F0FF021043C86001E001
:100A80000EE016E02068016841F001010160256474
:100A9000202084F83D00256384F83E50002070BD7E
:100AA00001EB4106421EB2FBF6F2521CB3E70120F5
:100AB000C2E701EB4101401EB0FBF1F0401CC0F366
:100AC0000B00B7E7A086010080841E0000093D00EE
:100AD00040420F00704770477047704770470000F2
:100AE00010B586B000210091019102910391006838
:100AF0001349884222D1134CA06940F00800A0613C
:100B0000A069694600F008000490C02000901220FF
:100B10000190032003900C48FFF7FCFCE06940F4CF
:100B20000010E061E069002200F40010049011461A
:100B30001F2000F073F81F2000F062F806B010BD0F
:100B40000054004000100240000C01407047704704
:100B5000024881680278114481607047D400002007
:100B6000074810B5016841F010010160032000F052
:100B700075F8002000F006F800F024F8002010BD01
:100B80000020024070B50D4D04464FF47A7128786C
:100B9000B1FBF0F00A490968B1FBF0F000F0E0FDAC
:100BA00048B9102C07D200222146501E00F036F81A
:100BB00000206C6070BD012070BD0000D4000020DA
:100BC000E00000200C4808B5816941F00101816115
:100BD000816901F001010091C16941F08051C16159
:100BE000C06900F0805000900448416821F0E06145
:100BF00041F08071416008BD0010024000000140DA
:100C0000002809DB00F01F0201219140400980000B
:100C100000F1E020C0F8001170470000F0B40E4B66
:100C20001B680C46C3F30223C3F10705042D00D94A
:100C30000425191D072901D2002300E0DB1E01262F
:100C400006FA05F1491E214099409E40761E164045
:100C50003143F0BC02F020BF0CED00E0064900F08B
:100C6000070208684FF6FF03184040EA0220034AD3
:100C700010430860704700000CED00E00000FA052A
:100C800010B50C0605D501F0070100EB4110283026
:100C900003E000EB411000F5947099B232B10122EB
:100CA00002730181190C4181002010BD00220273E2
:100CB000C180F9E7704700EB4112D0F86802D26BAF
:100CC00002F045B800EB4112D0F86802D2F83C219E
:100CD00002F0A0B870B504460B0601F0070004EB63
:100CE00040114FF001024FF0000503D581F8292093
:100CF000283103E081F8295101F59471087094F8C6
:100D00002802012808D084F82822206802F0BBFCC1
:100D100084F82852002070BD022070BD70B50446D2
:100D200001F00F006268904201D9012070BD0B06EE
:100D300001F0070004EB40114FF001024FF00005F5
:100D400003D581F82920283103E081F8295101F5E4
:100D500094718D70087094F82802012808D084F8E6
:100D60002822206802F032FD84F82852002070BD4D
:100D7000022070BD2DE9F04104460F0601F0070086
:100D800004EB40114FF001064FF0000503D581F848
:100D90002960283103E081F8295101F59471087028
:100DA0000A61CB704A7802B1C881022B00D10D7163
:100DB00094F82802012809D084F82862206802F0FB
:100DC0002DFB284684F82852BDE8F0810220FBE77D
:100DD00070B50C4601F0070500EB4511C1E94F2342
:100DE0000022C1F8442181F8292181F8285101F518
:100DF00094716207006802F03EFD002070BD70B57E
:100E000004460D4601F007006168884201D90120BF
:100E100070BD29064FF000064FF0010205D504EB26
:100E2000401181F82920283105E004EB451181F8B3
:100E3000296101F594718A70087094F828020128DC
:100E400007D084F82822206802F0FCFC680702D052
:100E500006E0022070BD04F50C71206802F0B4FCBD
:100E600084F82862002070BD70B50C4601F00705BB
:100E700000EB4511C1E90F2300224A64012281F8E9
:100E8000292001F8285F6207006802F0F4FC0020C6
:100E900070BD10B50446006802F0C8FD000402D51C
:100EA000204601F0F7F9206802F0C0FD40050CD59E
:100EB000206830F8441F21F480610180204600F052
:100EC000FBF80021204600F012F9206802F0AEFD88
:100ED000400405D5206830F8441F21F4804101808A
:100EE000206802F0A3FD800405D5206830F8441F77
:100EF00021F400510180206802F098FDC00414D54F
:100F0000206830F8401F21F004010180206830F88B
:100F1000401F21F008010180204600F0E0F8206821
:100F200030F8441F21F480510180206802F07EFDDA
:100F300000051FD5206830F8401F41F008010180EE
:100F4000206830F8441F21F400610180206830F8E7
:100F5000401F41F004010180206802F067FDC004D9
:100F600005D5206830F8441F21F4805101802046C7
:100F700000F0F2F8206802F059FD800508D52068DD
:100F800030F8441F21F400710180204600F0ABF8D6
:100F9000206802F04BFDC00505D5206830F8441FDD
:100FA00021F48071018010BD2DE9F04186B004006C
:100FB00004D094F82902002520B108E0012006B0F1
:100FC000BDE8F08184F82852204600F057F803204D
:100FD00084F82902206802F0F0FB04F110011422C9
:100FE00088466846FFF79EF894E80F0002F049FB38
:100FF0000227B0BB0021206802F032FD002001264C
:101000000DE000BF04EB401181F8296001F8280FC2
:10101000C881CD700D614D61401CC0B28D616168A9
:101020008142EFD800200FE004EB401181F82951F4
:1010300081F8280181F82B51C1F83851C1F83C5191
:10104000401CC0B2C1F8405161688142ECD8142202
:1010500041466846FFF766F894E80F0002F09EFBF1
:1010600010B184F82972A9E784F8245084F8296221
:10107000206802F091FB0020A1E7000008B500689D
:101080000B49884212D10B48C16941F40001C1618A
:10109000C069002200F40000009011461420FFF700
:1010A000BDFDBDE808401420FFF7AABD08BD000043
:1010B000005C00400010024070B5044680680125C5
:1010C000022801D0FFF7B2F82946D4F8680201F0EF
:1010D0007CFFD4F86802BDE8704001F038BFD0F85A
:1010E000680201F05CBFD0F8680201F062BF10B581
:1010F000044690F8280201280BD0012084F8280229
:1011000084F82410206802F0ADFC002084F8280246
:1011100010BD022010BDD0F8682200F50C711046F9
:1011200001F05FBF10B5044690F82802012810D0E6
:10113000012084F8280201462046FFF7BBFD206805
:1011400002F028FB206802F064FC002084F82802EA
:1011500010BD022010BD000010B50446D0F8680292
:1011600001F07EFFA069002804D00348016841F027
:101170000601016010BD000010ED00E02DE9F8430C
:1011800005460078354CC00754D0E0690026C00001
:1011900008D4E06940F08050E061E069012600F089
:1011A000805000902E480168C90512D4016880461D
:1011B00041F480710160FFF79DFA074605E000BF2A
:1011C000FFF798FAC01B642823D8D8F80000C005A0
:1011D000F6D5206A10F4407021D0A98801F440713E
:1011E00081421CD0206A1F49012220F440700A600D
:1011F00000220A602062C00711D0FFF77BFA074681
:1012000041F2883808E000BFFFF774FAC11B41457E
:1012100002D90320BDE8F883206A8007F4D5206A4C
:10122000696820F44070084320621EB1E06920F034
:101230008050E0612878800705D56068A96820F4AF
:101240004040084360602878C00605D56068E968BA
:1012500020F48000084360600020DBE700100240BB
:1012600000700040400442422DE9F0470F4605005F
:1012700061D0434E306800F00700B84209D23068B0
:1012800020F0070038433060306800F00700B842B3
:1012900051D128683B4C810712D5400703D56068BF
:1012A00040F4E06060602878000703D5606840F48F
:1012B000605060606068A96820F0F00008436060DA
:1012C0002878C00728D06868012810D02168022833
:1012D00010D0890700292EDA616821F0030101434B
:1012E0006160FFF707FA804641F288390DE0216816
:1012F0008903EFE78901EDE7FFF7FCF9A0EB0801AF
:10130000494502D90320BDE8F0876068696800F0AC
:101310000C00B0EB810FEFD1306800F00700B8424D
:101320000BD9306820F0070038433060306800F097
:101330000700B84201D00120E5E72878400705D52D
:101340006068E96820F4E06008436060287800077E
:1013500006D56068296920F4605040EAC1006060E9
:1013600000F038F86168084AC1F30311515CC840C5
:101370000649086006480068FFF704FC0020C2E741
:101380000020024000100240003C0008E000002065
:10139000D80000200448054900684968044AC1F3A0
:1013A0000221515CC8407047E0000020001002405C
:1013B000103C00080448054900684968044AC1F324
:1013C000C221515CC8407047E0000020001002407C
:1013D000103C000812A185B00FC98DE80F0014A0C1
:1013E000144A006804905168134801F00C03042B60
:1013F00010D0082B0ED1C1F38343C9031DF803009D
:101400000AD5516804AAC1F34041515C0A4A5043CD
:10141000B0FBF1F005B0704708494843FAE7000017
:1014200002030405060708090A0B0C0D0E0F101025
:10143000010200000010024000127A0000093D0085
:101440002DE9F84F040070D02078C04DC00749D076
:101450006868C0F38100012807D06868C0F3810084
:10146000022809D16868C00306D52868800339D5E9
:1014700060680028E7D035E06068B0F5803F0BD0A9
:1014800010B1B0F5A02F11D0286820F4803028606A
:10149000286820F4802002E0286840F4803028602A
:1014A000606890B1FFF726F906460AE0286840F424
:1014B00080202860F0E700BFFFF71CF9801B64283C
:1014C00073D828688003F7D50CE0FFF713F90646B8
:1014D00005E000BFFFF70EF9801B6428F0D82868EC
:1014E0008003F7D420789A4E80074FF001094FF01F
:1014F000000839D5686810F00C0F07D06868C0F391
:101500008100022809D16868C00306D428688007D2
:1015100014D52069012808D110E02069B0B1C6F8BF
:101520000090FFF7E7F8074605E00AE1FFF7E2F869
:10153000C01B0228C4D828688007F7D528686169CD
:1015400020F0F80040EAC10028600DE0C6F80080F5
:10155000FFF7D0F8074604E0FFF7CCF8C01B0228DD
:1015600023D828688007F7D4207800072CD579483D
:10157000A169D9B1C0F80090FFF7BCF8074604E0B4
:10158000FFF7B8F8C01B02280FD8686A8007F7D5A4
:1015900071484FF4FA510068B0FBF1F0009000BFC1
:1015A0000098411E0091FAD20EE080E0C0F8008061
:1015B000FFF7A0F8074604E0FFF79CF8C01B0228DD
:1015C00075D8686A8007F7D42078400760D5E86945
:1015D0000027C00008D4E86940F08050E861E8695D
:1015E000012700F0805000905C480168C90513D4C1
:1015F0000168834641F480710160FFF77BF8824601
:1016000006E000BFFFF776F8A0EB0A0064284ED88A
:10161000DBF80000C005F5D5E06801280AD008B164
:10162000052813D0286A20F001002862286A20F0DB
:10163000040002E0286A40F001002862E06841F2FC
:10164000883B98B1FFF756F882460BE0286A40F0D5
:1016500004002862EEE700BFFFF74CF8A0EB0A0198
:1016600059455AD8286A8007F6D50CE0FFF742F8AA
:10167000824605E0FFF73EF8A0EB0A0159454CD839
:10168000286A8007F6D41FB1E86920F08050E8612D
:10169000E06988B36968C1F38101022944D0022856
:1016A000C6F8608004D0FFF725F8044638E034E03F
:1016B000FFF720F8074604E0FFF71CF8C01B0228DC
:1016C0002BD828688001F7D4206AB0F5803F05D177
:1016D0006868A16820F4003008436860D4E9080114
:1016E0000843696821F4741108436860C6F8609083
:1016F000FFF700F8044606E025E000BFFEF7FAFF1A
:10170000001B022809D828688001F7D51BE000BF1C
:10171000FEF7F0FF001B022802D90320BDE8F88F76
:1017200028688001F4D40EE00128F7D06868226AA6
:1017300000F48031914204D1616A00F47010884253
:1017400001D00120EAE70020E8E700000010024095
:101750000000424280044242E0000020007000404D
:1017600010B5401EB0F1807F01D3012010BD4FF0B5
:10177000E02460610F21601702F08EF90020A06163
:1017800007202061002010BD704770B5040004D010
:1017900094F83900002510B106E0012070BD84F8EE
:1017A0003850204600F022F8242084F839002068C0
:1017B000C16821F40051C160204600F085FF206817
:1017C000016921F4904101612068416921F02A01F9
:1017D00041612068C16841F40051C160E563202087
:1017E00084F8390084F83A00002070BD70B586B0E6
:1017F00000250646009501950295039500681E494F
:10180000884236D11D49C86940F40030C861C869B2
:1018100000F400300490886940F004008861886911
:10182000174C00F004000490042000900220019066
:101830000320039069462046FEF76CFE0820CDE9A0
:101840000005694620460295FEF764FE0E4C0D48E1
:10185000C4E900058020C4E9025025616561A561E5
:101860002046E561FEF7DEFD08B1FEF7DFFC74639C
:10187000666206B070BD00000044004000100240E7
:10188000000801406C0002405C020020F8B50446EC
:1018900090F83A0020283CD1C1B3BAB394F838008C
:1018A000012836D0012084F83800A162A2850025E5
:1018B000E563222084F83A00636B17489862636BF3
:1018C0001648D862636B16481863606B134645630D
:1018D0000846666B216802463046091DFEF7D0FDBA
:1018E000206801684168009184F83850C16841F46B
:1018F0008071C1602068416941F001014161206847
:10190000416941F0400141610020F8BDFFE701203D
:10191000FBE70220F9E70000532600088F260008A5
:1019200009260008074910B564230C22A1F14000E4
:1019300000F00BF80349BDE810400C22A1F1400073
:10194000FFF7A4BF5002002070472DE9F84304467A
:1019500090F839001F4616460D46202850D1A5B1F3
:101960009EB194F8380001284AD0012084F838004C
:101970004FF00008C4F83C80212084F83900FEF7BD
:10198000B9FEA6848146E68426E00120BDE8F883FE
:10199000E08C401EE084A0684B46B0F5805F4FF0BD
:1019A00000024FF080012046009703D000F0E8FECF
:1019B000E8B90DE000F0E4FEC8B928882168C0F35A
:1019C00008004860206908B16D1C05E0AD1C03E00B
:1019D000216815F8010B4860E08C0028D8D14B46EF
:1019E000002240212046009700F0CAFE08B10320E3
:1019F000CCE7202084F8390084F838800020C5E73F
:101A00000220C3E7FEE700000148FEF77BBE0000AE
:101A1000BC01002010B5406A90F83D30426B0021B7
:101A20009162826B91620268146824F4806414608D
:101A30004185426B5163826B51630268146824F0E4
:101A40000104146090F83D202024602A0BD0282245
:101A500032EA03030FD080F83D4080F83E1000BF0B
:101A6000FEF77DFF10BD80F83D4080F83E10016418
:101A7000FEF746FE10BD03681C6844F001041C60BC
:101A800003681C6844F480641C60016380F83D2096
:101A9000E6E7000070B5044690F83D0094F83E106B
:101AA000102906D1222804D121680A6822F4006294
:101AB0000A60282131EA00024FF000054FF02006AD
:101AC00026D021684968090503D4602801D084F82C
:101AD0003D60256384F83E5020684168090537D58C
:101AE000416821F400614160606B384990F8212021
:101AF000012A11D04163606BFEF79AFB38B320686E
:101B0000016821F00101016084F83D60606B1CE018
:101B1000256384F83D10DFE7A06B4163A06BFEF7FF
:101B200087FBA0B120684169C943490605D4006913
:101B3000616A0870606A401C60622068016821F078
:101B40000101016084F83D60A06B416B884710E0A3
:101B500094F83D10602923D04169C943490605D452
:101B60000069616A0870606A401C60622046FEF786
:101B7000F6FE94F83D00216C490710D528280ED1B7
:101B80002068416821F4E06141601148E06225630A
:101B900084F83D6084F83E502046FEF79BFF70BD00
:101BA00084F83D6025644169C943490605D400694C
:101BB000616A0870606A401C60622068016821F0F8
:101BC000010101602046FEF79BFDD2E7151A0008CF
:101BD0000000FFFF10B5C26A438D0168042B06D0D8
:101BE000438D032B08D0438D022B1DD012E04A6891
:101BF00022F480624A600CE04B6823F480634B60FF
:101C0000042A06D0022A04D001680A6822F48062FD
:101C10000A6001680969426A1170416A491C41629F
:101C2000418D491E418510BD012A30D0102A2ED089
:101C3000042A30D0022A2ED00A6842F400720A60C8
:101C400001680969426A1170416A491C4162428D0A
:101C5000521E4285026812690A70416A491C41623B
:101C6000418D491E418501684A6822F440724A60EC
:101C7000202180F83D1090F83E200021402A80F875
:101C80003E100CD012210163FEF725FF10BD0A683B
:101C900022F48062D3E70A6842F48062CFE70163EE
:101CA000FEF71BFF10BD10B590F83D10222914D18E
:101CB000418D032912D901680969426A1170416A8C
:101CC000491C4162418D491E4185418D032904D142
:101CD0000068416821F48061416010BDC26A022A37
:101CE000FBD0012901D00029F7D101680A6822F44C
:101CF00080620A6001684A6822F4E0624A60016812
:101D00000969426A1170416A491C4162418D491E4C
:101D10004185202180F83D1090F83E200021402A86
:101D200080F83E1004D012210163FEF7D4FE10BDEE
:101D30000163FEF7D2FE10BD10B5C26A90F83D10E7
:101D400021290BD1418D51B1416A02680978116195
:101D5000416A491C4162418D491E418510BD2023C5
:101D60000021082A13D0202A11D012F5803F0ED06E
:101D70000268546824F4E06454601122026380F81D
:101D80003E1080F83D3000BFFEF7A6FE10BD026891
:101D9000546824F4E06454600268146844F40074E5
:101DA0001460016380F83D3090F83E2080F83E10CA
:101DB000402AE9D1FEF792FE10BD000010B590F860
:101DC0003D1090F83E30C26A048D64B1212903D0E1
:101DD000402B21D122291FD1418DA1B390F83E1073
:101DE000402937D046E02129F2D120230021082ABA
:101DF00013D0202A11D012F5803F0ED0026854680B
:101E000024F4E06454601122026380F83E1080F8EC
:101E10003D3000BFFEF760FE10BD0268546824F438
:101E2000E06454600268146844F400741460016350
:101E300080F83D3090F83E2080F83E10402AE9D1ED
:101E4000FEF74CFE10BDFFE70068416821F4806199
:101E50004160F7E7016DC1B1016D012922D0016D2B
:101E60000229EFD190F83D10222923D090F83D109F
:101E70002129E7D1416A026809781161416A491C48
:101E80004162418D491E4185DCE7C16C0129816CAD
:101E900002D0C1F3072107E00268C9B21161016DE8
:101EA000891C05E0816CC9B202681161016D491C91
:101EB0000165C7E70068016841F480710160C1E70E
:101EC00078B590F83E50C26A046B90F83D600023EC
:101ED0000168222E73D1066D0EB9402D6FD0056DAD
:101EE0001DB90569B5F5404F1BD0458D95B3468D9D
:101EF000484D012E20D0448D022C4DD00C6844F466
:101F000080640C6001684C68240579D5AA4273D0BE
:101F1000012A71D0082A6FD0102A6DD0202A6BD0E8
:101F20006EE04A698A6900920A6842F480720A6027
:101F3000016D491C016578BDAA4214D10A6822F4DA
:101F400080620A6001684A68120504D50A6822F4B2
:101F5000806217E0FFE74A698A6900920A6842F4E2
:101F600000720A6050E0082A10D0202A0ED0122CED
:101F70000AD0042A03D0022A01D0102AE6D10A6826
:101F800042F480620A603BE0012ADFD00A6822F452
:101F900080620A600168DEE7042A11D0022A0FD0AD
:101FA000102A0DD00C6844F400640C6001684C6980
:101FB0008C6900940C6824F480640C6008E025E0CF
:101FC0000C6844F480640C6001684C698969009174
:101FD00001684C68240517D5AA4207D0012A05D00C
:101FE000082A03D0102A01D0202A0DD14A6842F4D1
:101FF00080524A6008E0FFE74A6842F480524A6033
:1020000001684A6989690091036578BD48698869F2
:10201000009078BD0000FFFF90F83E10402910D0DE
:102020000169B1F5804F19D0016DB1B3016D01297E
:1020300010D1416C5FF0F10201F4407142EAD1111C
:1020400006E0016D0029416C05D0C9B241F00101E3
:1020500000680161704701F0FE01F9E790F83D105A
:102060002129416C07D0C9B241F001010268116118
:10207000416B31B902E001F0FE01F7E7826B002A03
:10208000E8D0896A19B9816B896A0029E2D00068B1
:10209000416841F4006141607047FFE7416CF02204
:1020A00001F44071CAE70000F8B590F83D600446BD
:1020B0000068416821F4E0614160206800254169C1
:1020C0000091016841F0010101602068016821F47C
:1020D0008061016020684168090520D5474F222EA4
:1020E00048D02A2E46D0616B096849686185618DA8
:1020F00019B1216C41F004012164416821F40061AF
:102100004160606BFEF7E0F8012808D0606B476320
:10211000606BFEF78DF810B1606B416B8847608D86
:1021200008B320684169C943490708D40069616A56
:102130000870606A401C6062608D401E6085206887
:102140004169C943490608D40069616A0870606A38
:10215000401C6062608D401E6085608D18B1206CEF
:1021600040F004002064206C00B32046BDE8F84035
:10217000FFF790BCA16B096849686185618D19B151
:10218000216C41F004012164416821F40061416047
:10219000A06BFEF799F80128C1D0A06B4763A06B34
:1021A000FEF746F80028BAD0A06BB6E72A2E06D173
:1021B0002563282084F83D002046FEF7C7FC94F8EC
:1021C0003D10202028290DD0216B222901D0222E5C
:1021D00007D1256384F83D0084F83E502046FEF781
:1021E000B5FCF8BD0649E162256384F83D0084F83A
:1021F0003E502046FEF76EFCF8BD0000151A0008A0
:102200000000FFFFF0B500230A24302537261F46C3
:1022100011E000BFB4EB107F02D905EB107C01E0A8
:1022200006EB107C01F813C001EB430C00015B1CB2
:102230008CF80170DBB29342ECD3F0BD10B50022F4
:102240000F49104800F05CFD08B1FDF7EFFF0E49A3
:102250000C4800F02BFF08B1FDF7E8FF0B490948D7
:1022600000F048FB08B1FDF7E1FF064800F074FFFD
:10227000002803D0BDE81040FDF7D8BF10BD000016
:102280000C000020A0020020E8000020C400002074
:10229000FEE770472DE9F05F044648F60F7B4FF0EC
:1022A000020A4FF480684AE1B0F8441011F00F06BA
:1022B00029D030F82670390479D530F8261040F648
:1022C0008F72114041F0800120F8261004EB461572
:1022D00095F8340105F594750028206868D02978B0
:1022E00030F8212052047DD5B0F850200AEBC1010E
:1022F0000A4408EB4201415AC1F309015FEA0109AE
:1023000071D02A89D2E0C9062DD4018801EA0B01D7
:1023100041F400410180206804F12805B0F8502004
:102320002B780AEBC3010A4408EB4201405AC0F380
:1023300009006064E16B0844E06300212046FEF779
:10234000BAFC94F824000028ADD0A8690028AAD1CE
:1023500094F82400216840F08000A1F84C0000208F
:1023600084F82400EBE0018804F594750A0520D573
:10237000B0F850202B78062101EBC3010A4408EB8A
:102380004201405A04F50C71C0F30903EB61EA887D
:10239000206801F04FFB2068018840F68F721140E1
:1023A00041F0800101802046FEF7B5FEC7E0A2E0C3
:1023B00058E0090455D5018840F68F72114041F06C
:1023C000800101802168B1F850202B78062000EBB5
:1023D000C300024408EB4200085A83059B0DEB61E1
:1023E00010D001E053E065E0696959B1EA882068DE
:1023F00001F020FBE9696869084468610021204612
:10240000FEF760FC2068B0F850100844296900F21B
:102410000C4051B13E2910D84A08C90700D0521CBF
:102420004FF6FF7101EA82210FE0018821F4F841A3
:102430000180018841F4004107E04A09C90600D142
:10244000521E4FF4004141EA822101802068018838
:102450004BF68F72114081F4405148F280021143D3
:1024600001806CE0B0F850202B78062101EBC3010D
:102470000A4408EB4201415AC1F309015FEA01092C
:1024800024D0EA884B46696901F0D4FA1EE0B0F81E
:102490005030062202EBC1015A1808EB4201415AA2
:1024A000C1F309015FEA010904D06A894B466969F1
:1024B00001F0C0FA2878226832F8201048F68F73AD
:1024C000194048F2C003194322F82010E869484433
:1024D000E861686900EB09026A61AB6913B12869B8
:1024E000484504D929782046FEF7ECFB03E029781B
:1024F0002046FEF76DFC380621D5216804EB461016
:1025000031F8262002EA0B0242F4004221F826208C
:102510002168B1F8505010F8282F0AEBC2022A4463
:1025200008EB4202895AC1F30901C16142690A44B8
:10253000426101788369204653B1FEF795FC20681B
:10254000B0F8441009043FF5AFAE0020BDE8F09F9D
:10255000FEF7B1FBF3E770477047FEF7F9BA30B505
:1025600093B028216846FDF7F6FD14210AA8FDF76F
:10257000F2FD002401200F94109411940104129490
:102580008DE8130004904FF4E010CDE90810022507
:1025900007956846FEF754FF0F20CDE90A0568024B
:1025A000CDE90C4002210AA80E94FEF75DFE102032
:1025B0000F9012940FA8FEF7E1FD13B030BD00009C
:1025C0000D48016841F00101016041680B4A11406A
:1025D000416001680A4A11400160016821F48021CC
:1025E0000160416821F4FE0141604FF41F018160E8
:1025F0000449C00308607047001002400000FFF863
:10260000FFFFF6FE08ED00E070B5446A20684069FF
:1026100094F83910C0F3C0100025212904D118B155
:10262000E584204600F046F82068406994F83A10A6
:10263000C0F38010222904D118B1E585204600F0AE
:102640002BF8E06B40F01000E0632046FFF79CF8A9
:1026500070BD10B50146406A09680968890613D43F
:102660000021C1850168CA6822F48072CA600168CD
:102670004A6922F001024A6101684A6922F0400277
:102680004A61202180F83A10FFF74CF910BD10B5CF
:10269000406AFFF759F910BD0168CA6822F49072C8
:1026A000CA6001684A6922F001024A61202180F86B
:1026B0003A1070470168CA6822F0C002CA6020213F
:1026C00080F83910704700002DE9F0410446006899
:1026D0000169E26821F44051114301612169A06858
:1026E0000843616908432168CA6841F20C639A4350
:1026F0000243CA6020684169A26921F44071114314
:1027000041611E49206864253226884202D1FEF7C5
:1027100051FE01E0FEF73EFE00EBC00101EB0011AF
:1027200060686FF018078000B1FBF0F2B2FBF5F2C1
:10273000B1FBF0F37A4303EB8202B1FBF0F306EB5B
:102740000212B2FBF5F2B3FBF5F302F0F00202EB7A
:102750000312B1FBF0F3B1FBF0F0B0FBF5F07843FE
:1027600003EB800006EB0010B0FBF5F0216800F0F1
:102770000F0010448860BDE8F0810000003801407F
:102780002DE9F041984617460E460446069D1DE089
:10279000681C1BD02DB1FDF7ADFFA0EB0800A842CF
:1027A00014D92068C16821F4D071C16020684169E2
:1027B00021F001014161202084F8390084F83A00B9
:1027C000002084F838000320BDE8F081206800680C
:1027D00036EA000004D00020B842D9D00020F3E748
:1027E0000120F9E7D0F8B802002180F8301008463F
:1027F000704770B50546D0F8B842D5F8BC2261786C
:10280000D26820789047202322460121284600F0F4
:1028100095FB002070BD70B50446812100F08EFA52
:10282000002501212046E56200F088FAC4F86C51C9
:10283000D4F8B80248B1D4F8BC0204F52E7480680C
:102840008047206800F0E5FD2560002070BD10B5D0
:10285000D0F8B842E16A012908D1D0F8BC02237847
:102860006178C268184690470020E062002010BDE1
:102870000A21018000487047B00100202921018011
:10288000004870472001002029210180004870473E
:102890004C01002029210180004870477801002068
:1028A00070B50446002602230322812100F03AFB82
:1028B00001250223032229462046E56200F032FB6F
:1028C0003420C4F86C5100F0A5FDC4F8B80278B10A
:1028D0000546002085F83000D4F8BC0240688047E7
:1028E00020232A460121204600F028FB304670BDF7
:1028F0000126FBE702460220002902D00020C2F890
:10290000BC12704710B5134690F89C42D0F8B8221C
:10291000032C0BD192F830400CB1012010BD0124E2
:1029200082F830400A46812100F0A3FB002010BD50
:10293000F8B50022D0F8B832ADF800200E78154670
:10294000144616F0600622D0202E56D14A78921EE8
:102950000A2A52D2DFE802F01008515151515114A5
:102960000C05887818624BE0012203F1200135E064
:102970004888000A586243E0012203F124012DE057
:102980000122DA62CA88194600F064F838E04E780D
:1029900036B1062E0BD00A2E23D00B2E2DD128E0D7
:1029A00090F89C22032A28D10222694616E04B881F
:1029B0002226B6EB132F07D1CA88652A00D96522D3
:1029C000D0F8BC120D6808E02126B6EB132F04D115
:1029D000CA880E4D092A00D90922294600F054F868
:1029E0000EE090F89C22032A07D1012203F128016E
:1029F000F4E790F89C22032A04D000F020F8022487
:102A00002046F8BD88789862FAE70000A40100200B
:102A100010B5D0F8B42252689047002010BD13467C
:102A200010B50A46002100F089FA002010BD1346B7
:102A300010B50A46002100F01CFB002010BD10B5A7
:102A40000446802100F0FAFA2046BDE8104000213B
:102A500000F0F4BA10B50323C0F85C21C0F894323A
:102A6000C0F8602113460A46002100F067FA0020F2
:102A700010BD10B505210023C0F894121A4619465E
:102A800000F05CFA002010BD10B50223C261C0F84E
:102A90009432026213460A46002100F0EAFA00204E
:102AA00010BD10B504210023C0F894121A4619462F
:102AB00000F0DFFA002010BD10B50A46024903A05D
:102AC00000F0EEF8004810BD08080020437573744C
:102AD0006F6D2048494420436F6E666967000000AF
:102AE00012200880004870472C00002010B50A46CC
:102AF000024903A000F0D4F8004810BD08080020E7
:102B0000437573746F6D2048494420496E74657233
:102B1000666163650000000004200880004870477B
:102B20002800002010B50A46024903A000F0B8F8BA
:102B3000004810BD0808002053544D6963726F654A
:102B40006C656374726F6E696373000010B50A463A
:102B5000024903A000F0A4F8004810BD08080020B6
:102B600053544D333220437573746F6D2048756D27
:102B7000616E20696E7465726661636500000000B5
:102B800010B51A2008800A480168001D0468001D5D
:102B90000068081809D008220649FFF733FB0549E9
:102BA000042210312046FFF72DFB0248801E10BD85
:102BB000E8F7FF1F42000020F8B504460020ADF8FA
:102BC000000048880D46010A082948D2DFE801F0D4
:102BD0004704091747473C45D4F8B012207C0A68DF
:102BE00019E0207C02260028D4F8B40205D0C16A7E
:102BF00068468847014646703EE0816AF8E7C0B201
:102C000006282CD2DFE800F0030A1014181CD4F8B0
:102C1000B002426805E0694690471CE0D4F8B00273
:102C20008268E2B1207CF6E7D4F8B002C268F8E727
:102C3000D4F8B0020269F4E7D4F8B0024269F0E7D0
:102C4000D4F8B0028269ECE7207C40B9D4F8B40231
:102C5000416B6846884701460EE0207C20B129463A
:102C60002046FFF7ECFEF8BDD4F8B402016B6846CD
:102C70008847014607204870BDF8000048B1EA883F
:102C800052B1824200D90246ADF800202046FFF73B
:102C9000FBFEE8880028E6D12046FFF702FFF8BDDA
:102CA00070B5002300281ED00446002502E06D1CEC
:102CB000EDB2641C2678002EF9D1022404EB450401
:102CC00014801278CA545B1C0322CA5400245B1C73
:102CD00006E0CA545B1CDAB28C54521CD3B2401CBE
:102CE0000278002AF5D170BD01004FF0000004D039
:102CF000012901D0022901D002207047012070472C
:102D000010B580B1D0F8B43213B10023C0F8B4329A
:102D100009B1C0F8B012012180F89C12027000F0D5
:102D2000BBF8002010BD022010BD10B5D0F8C002C5
:102D3000FDF7F4FFBDE81040FFF7D6BF10B5D0F89F
:102D4000C002FDF7C7FFBDE81040FFF7CDBF2DE97A
:102D5000F0411746044651B1D4F8B40242691AB1A1
:102D600094F89C02032851D00220BDE8F081D4F8E9
:102D70009432002504F11400022B03D0042B3AD026
:102D8000C3B33CE0D0E903639E4207D9F11AC160A6
:102D90008AB239462046FFF74AFE12E08068B0FB4F
:102DA000F3F103FB110199B9984211D3D4F89812A9
:102DB00088420DD2002211462046FFF738FEC4F8A3
:102DC000985200231A461946204600F0B7F816E03C
:102DD000D4F8B402C16829B194F89C02032801D147
:102DE000204688478021204600F028F92046FFF73A
:102DF00040FE04E0FFE78021204600F01FF994F830
:102E0000A002012804D184F8A05201E02046904796
:102E10000020AAE770B51546044649B1D4F8B402BB
:102E200082691AB194F89C02032830D0022070BD48
:102E3000D4F8941204F5AA70032902D005291ED0F3
:102E400027E0D0E903218A420BD9531AC360084610
:102E5000834200D303469AB229462046FFF7DFFD9E
:102E600017E0D4F8B402016929B194F89C02032850
:102E700001D1204688472046FFF713FE09E00020D5
:102E80000146C4F89402204600F0D8F801E020463C
:102E90009047002070BD000010B519490446C1F8E4
:102EA0006802C0F8C0121748086008204860022075
:102EB000886000208861C86108620846FEF774F8DF
:102EC00008B1FDF7B3F90022D4F8C0021823114667
:102ED00004F53074FDF7D4FE5823002280212068C9
:102EE000FDF7CEFE9823002281212068FDF7C8FE61
:102EF000D823002201212068FDF7C2FE002010BD6A
:102F00009C050020005C00400A06D0F8C00201F0D9
:102F10007F0100EB411002D590F82A00704790F82D
:102F20002A01704710B51C461346D0F8C00222464D
:102F3000FDF720FFBDE81040FFF7D6BE10B5D0F872
:102F4000C002FDF745FFBDE81040FFF7CDBE70B5EC
:102F50000022044608231146FFF7E4FF0826012556
:102F6000C4F864613346002280212046C4F85851D9
:102F7000FFF7D8FF6662A56184F89C520020C4F870
:102F800094026060C4F8A402D4F8B80228B1D4F85E
:102F9000B4020021426820469047002070BD90F89E
:102FA0009C12042903D190F89D1280F89C120020F5
:102FB000704710B590F89C12032904D1D0F8B412D0
:102FC000C96901B18847002010BD01740020704715
:102FD00010B5D0F8C002FEF78AF8BDE81040FFF740
:102FE00083BE70B5044600F52A70054600F04AF825
:102FF0000120C4F89402B4F8AE02C4F8980294F820
:10300000A80210F01F010AD001290DD0022910D00A
:1030100000F08001204600F011F8002070BD294624
:10302000204600F09EF8F8E72946204600F0CAF94D
:10303000F3E72946204600F01DF9EEE710B5D0F879
:10304000C002FDF7DCFEBDE81040FFF74DBE10B535
:10305000D0F8C002FEF766F8BDE81040FFF744BEA6
:1030600090F89C1280F89D12042180F89C12002098
:10307000704710B5D0F8C002FDF7F6FEBDE810406D
:10308000FFF732BE0A7802704A7842708A78CB78AD
:1030900002EB032242800A794B7902EB0322828001
:1030A0008A79C97902EB0121C1807047024600206C
:1030B00011B1C2F8B41270470220704710B5D0F8B1
:1030C000B42202241AB11268904700B900242046A5
:1030D00010BD000070B50E461E4D8978044629705B
:1030E000012931D894F89C0202280BD003280FD074
:1030F00031462046FFF7A3FC29782046BDE8704002
:10310000FFF786BCD9B10320616084F89C0209E016
:1031100071B16068884212D0C1B22046FFF778FCD6
:10312000297861602046FFF7C9FF02280CD006E02D
:10313000022084F89C0220466160FFF769FC20466B
:10314000BDE87040FFF7ADBC31462046BDE8704099
:10315000FFF775BCE400002010B5FFF778FF0020F2
:1031600010BD2DE9F0410A78002612F0600208D067
:10317000202A01D0402A70D1D0F8B422926890471A
:103180006DE04B78002201250A2B66D2DFE803F0C0
:10319000405D6557650805652C29FFF70DFD5EE06C
:1031A00004468888D8B9C888C8B94888802816D203
:1031B00000F07F0794F89C02032810D084F89E72D8
:1031C00039462046FFF704FF2046FFF76AFC1FB18F
:1031D000022084F89C0242E084F89C523FE02046A2
:1031E0003BE0FFF777FF3AE0CB88012B35D190F831
:1031F0009C32012B04D0022B02D0032B2DD104E0F2
:103200008260012200F1080116E00122011D13E095
:1032100090F89C22012A03D0022A01D0032A1CD153
:10322000CA88022A19D1C560D0F8A41209B10321B5
:10323000C160022200F10C01FFF726FC0FE0498873
:1032400001290CD1C0F8A45211E090F89C32012B56
:1032500008D0022B06D0032B04D0FFF7F0FB30463A
:10326000BDE8F08149880129F9D1C0F8A422FFF70F
:1032700018FCF4E72DE9F0410A46044610780027CF
:10328000097910F060030AD0202B01D0402B50D1D7
:10329000D4F8B40211468368204698478FE0C0F303
:1032A0004110012806D05078D0B301282AD0032835
:1032B0003FD107E0D4F8B402114683682046BDE848
:1032C000F041184794F89C02022802D0032872D1DA
:1032D0000AE071B380296ED02046FFF7AFFE80214F
:1032E0002046FFF7ABFE6AE0508838B931B180293B
:1032F00004D0D08810B92046FFF7A0FE2046FFF783
:10330000D0FB5CE094F89C020228E2D0032852D162
:10331000508898BB4806F1D02046FFF706FDEDE740
:10332000FFE794F89C020026022803D0032842D12C
:1033300012E040E009B180293DD1080601F07F008C
:1033400000EB800004EB800101D5143101E001F5B0
:10335000AA7102220E602AE0080601F00F0000EBBD
:10336000800004EB80000AD5806920B301F07F0063
:1033700000EB800004EB800514350BE01FE0D0F873
:103380005801C0B101F07F0000EB800004EB800524
:1033900005F5AA7541B1802906D02046FFF7B4FD96
:1033A00010B10120286000E02E600222294620464C
:1033B000FFF76AFB03E011462046FFF740FB384663
:1033C000BDE8F08170B5054608780C4610F0600045
:1033D00003D0202801D0402816D195F89C0201285E
:1033E00003D0022801D003280ED1207902280BD85F
:1033F000D5F8B402826828469047E188014306D197
:103400002846FFF74EFB02E02846FFF718FB002096
:1034100070BD704700487047640500202DE9F047F3
:103420000C784FF0000C30F8243048F68F1213401F
:10343000CA78002A7DD0012A7CD0022A03D0032A30
:1034400079D04FF0010C48F28002134320F8243069
:103450000D7830F8254048F68F731C402C431443F8
:1034600020F825400F7B48F6BF744BF68F7948F261
:10347000C0054CF28006EFB391F80080C24630F8E8
:10348000287048F280181F4047EA080720F82A7081
:10349000B0F8507091F80080074407EB0817B1F8B6
:1034A000088028F00108A7F80084B0F8507091F85F
:1034B0000080074407EB0817B1F80A8028F00108DC
:1034C000A7F808844F7891F80080002F30F8287012
:1034D0004FEA47477ED0002F05DA30F828701F40AA
:1034E000374320F828700F7830F827805FEA486863
:1034F00009D500E033E030F8278008EA030848EAFD
:10350000050820F827800F7830F827501D403543F4
:1035100020F82750CB780D78012B30F8253003EABE
:10352000040301D083F02003134320F825300B78E7
:1035300002E00BE010E00CE030F8231001EA090192
:10354000114320F823106046BDE8F08743F4007370
:1035500079E743F4C06376E743F4806373E74F7819
:1035600027B3B0F850600F78064406EB0716CF88F3
:1035700027F00107A6F800740F7830F82760760668
:1035800005D530F827601E402E4320F82760CB7801
:10359000012B06D00B7830F82310214081F0200158
:1035A000CEE70B7830F823102140C9E7B0F850403F
:1035B0000D78044404EB0514CD8825F00105A4F82A
:1035C0000854B0F850400D78044404EB051404F29C
:1035D0000C4400E030E00D6955B13E2D10D86F0865
:1035E000ED0700D07F1C4FF6FF7505EA87250FE039
:1035F000258825F4F8452580258845F4004507E011
:103600006F09ED0600D17F1E4FF4004545EA87257E
:1036100025800D7830F82540640405D530F8254024
:103620001C40344320F825400B7830F8231001EA81
:10363000090181F4405183E7002F05DA30F8287042
:103640001F40374320F828700E7830F826707F0628
:1036500005D530F826701F402F4320F826700F78CC
:1036600030F827601E402E4320F827600D7830F890
:10367000253003EA090383F44053134320F825302F
:103680008FE7002070472DE9F04391F80C804F78C8
:103690000A7848F6BF7C4BF68F7948F2800348F2EF
:1036A000C0054CF2800648F68F74B8F1000F28D0A0
:1036B000002F30F822704FEA474748D0002F05DA34
:1036C00030F822702740374320F822700A7830F80B
:1036D00022707F0605D530F8227027402F4320F84E
:1036E00022700D7830F825202240324320F8252022
:1036F0000C7830F8242002EA0C021A4320F8242027
:103700001AE07FB130F82260760605D530F82260E5
:1037100026402E4320F822600A7830F8221001EA71
:103720000C010EE030F822506D0405D530F822501F
:103730002540354320F822500A7830F8221001EA5B
:103740000901194320F822100020BDE8F083002F62
:1037500005DA30F822702740374320F822700A78C3
:1037600030F82260760605D530F8226026402E43D8
:1037700020F822600E7830F8262022402A4320F8D4
:1037800026200C7830F8242002EA09021A4320F897
:103790002420C1E7002070470020704700B50121B8
:1037A000A0F840100021A0F84010A0F84410A0F8A4
:1037B000501000F02EF9002000BD30F8401F21F419
:1037C0003F410180002070470020704730B50A7BE0
:1037D000B2BB4A7848F68F7548F28004C2B10B78C4
:1037E00030F82320520607D530F823202A4048F22B
:1037F000C0052A4320F82320CA78012A20D00A785D
:1038000030F8221048F6BF73194081F0200114E00F
:103810000A7830F822305B0407D530F822302B408C
:103820004CF280052B4320F822300A7830F8221021
:103830004BF68F73194081F44051214320F8221038
:10384000002030BD10B54A780978002A48F280037C
:1038500030F8212005D048F6BF74224082F01002D3
:1038600004E04BF68F74224082F480521A4320F811
:103870002120002010BDF0B50E46054691F801C08C
:103880000022097B3469B06948F28007BCF1010F5E
:1038900004D0A0424FD9001BB0614EE0A04202D933
:1038A000001BB06101E00446B26169B1307835F8BF
:1038B00020104906B5F85010294401EB001012D52C
:1038C000A0F80C44728911E0A3B2F288284671690D
:1038D00000F0CEF8B5F850003178284400EB011024
:1038E000A0F804441EE0A0F804443289A3B228469C
:1038F000716900F0BDF8707848F68F7110B1012839
:1039000007D00FE0327835F82200084048F2C001B5
:1039100005E0327835F8220008404CF28001084377
:1039200025F82200317835F8210048F6BF721040A2
:1039300080F0300068E00446B2614FF6FF724FF449
:10394000004381B3BCF1000F15D027E0018821F4BA
:10395000F8410180018841F400410AE03E2C3ED844
:103960006108E30700D0491C02EA812101E043EA33
:103970008121018040E0B5F850003178284400EB07
:10398000011000F204407CB13E2C15D861085FEABA
:10399000C47C00D0491C02EA81210180707810B1FA
:1039A000012821D028E00FE0018821F4F8410180AE
:1039B000018841F40041F0E761095FEAC46C00D17D
:1039C000491E43EA8121E8E7B5F8500031782844E0
:1039D00000EB011000F20C40002CBFD1B6E76109EA
:1039E000E206C4D1491EC2E7B5F850104819317833
:1039F00000EB0110A0F80C44317835F821004BF6AB
:103A00008F72104080F44050384325F82100002088
:103A1000F0BD30F8401F41F43F4101800020704765
:103A20000148FDF736BA00009C050020B0F84400BC
:103A30007047000010B500EB42005C0800F58060A4
:103A400009D000BF30F8042B01F8012B120A01F84D
:103A5000012B641EF6D1DA0701D00088087010BD72
:103A60000020704711B98021A0F84C100020704749
:103A700010B55B1C00EB42005B0800F5806009D0CC
:103A800011F8012B11F8014B42EA042220F8042B13
:103A90005B1EF5D110BDFEE70907090E002804DB07
:103AA00000F1E02080F80014704700F00F0000F1F2
:103AB000E02080F8141D704702E008C8121F08C1FA
:103AC000002AFAD170477047002001E001C1121F9F
:103AD000002AFBD170470000424808B5022101705E
:103AE000642181700024C4703E4D047144706D1DCA
:103AF00001202870FDF734F8FEF731FD3A4881695E
:103B000041F020018161816901F02001009181690A
:103B100041F004018161816901F004010091816932
:103B200041F008018161816901F00801009141695A
:103B300041F0010141614069002200F00100009064
:103B400011461020FDF76AF81020FDF759F8FEF72E
:103B500075FB2748254901602649C0E901144FF447
:103B60008041C0E9034144618461C4610462FCF79F
:103B7000F7FE1F482049543001604FF4E131C0E99D
:103B800001140C21C460C0E904418461C461FDF7E3
:103B9000FCFD17490C229431A1F14000FDF776FE9F
:103BA0004FF4FA76042705220E491448FEF7AAFEC0
:103BB0003046FCF79DFC0B496C70EF700522491DE7
:103BC0000E48FEF79FFE3046FCF792FC05496C70EC
:103BD000EC700522491D0948FEF794FE3046FCF7BB
:103BE00087FCE0E700000020001002400054004085
:103BF000BC010020801A060000440040A002002002
:103C0000000000000000000001020304060708098C
:103C10000000000001020304383C000800000020FE
:103C2000BC01000090010008303D0008BC010020EC
:103C30004C0C0000C83A0008C113E12A1408192BE3
:103C40001B0825041A4D041A81041AB9141AED042C
:103C50001704030904120132021608830450572680
:103C60000201020301031A1A03101005010906A13B
:103C7000018501050719E029E715181325019508A5
:103C80007501810295017508810195027508141A64
:103C9000651E11142965811AC02F1A022F150209F9
:103CA00001A13F050919012903335A03331C05817A
:103CB0000322301230093109381581257F750895A6
:103CC000038106C0C0225C1420ED011B08E9041A20
:103CD000F10419971182105324F413A1281B08171B
:103CE0000413312942081A4F0C13E5271B08F3046B
:103CF000C11A89181A7D041A95041A71041409024C
:103D00002913010125C03209042A02ED15092111E8
:103D100001140122651A079212022D0507050107F9
:103D2000291A09562C691A31130A0632022A40E46C
:04000005080000ED02
:00000001FF
